:020000040800F2
:1000000000000220316E0008DD0B0008E10B000843
:10001000E50B0008E90B0008ED0B000800000000EC
:10002000000000000000000000000000013E000889
:10003000F10B000800000000913E0008F53E0008AA
:10004000816E0008816E0008816E0008816E0008D4
:10005000816E0008816E0008816E0008816E0008C4
:10006000816E0008F50B0008FD0B0008816E00088A
:10007000816E0008816E0008816E0008816E0008A4
:10008000816E0008816E0008816E0008816E000894
:10009000816E0008816E0008816E0008050C000862
:1000A000816E0008816E0008816E0008816E000874
:1000B0001D0C0008816E0008816E0008816E00082A
:1000C000816E0008816E0008816E0008816E000854
:1000D000816E0008816E0008816E0008816E000844
:1000E000816E0008816E0008816E0008816E000834
:1000F000816E0008816E0008816E0008816E000824
:10010000816E0008816E0008816E0008816E000813
:10011000816E0008816E0008816E0008816E000803
:10012000816E0008816E0008816E0008816E0008F3
:10013000816E0008816E0008816E0008816E0008E3
:10014000816E0008816E0008816E0008816E0008D3
:10015000816E0008816E0008816E0008816E0008C3
:10016000816E0008816E0008816E0008816E0008B3
:10017000816E0008816E0008816E0008000000009A
:08018000816E0008816E000889
:1001900010B5054C237833B9044B13B10448AFF3C1
:1001A00000800123237010BD180100200000000012
:1001B000A480000808B5034B1BB103490348AFF303
:1001C000008008BD000000001C010020A480000881
:1001D00053B94AB9002908BF00281CBF4FF0FF31AE
:1001E0004FF0FF3000F074B9ADF1080C6DE904CEAA
:1001F00000F006F8DDF804E0DDE9022304B0704702
:100200002DE9F047089D04468E46002B4DD18A42C9
:10021000944669D9B2FA82F252B101FA02F3C2F1FC
:10022000200120FA01F10CFA02FC41EA030E94408D
:100230004FEA1C48210CBEFBF8F61FFA8CF708FBAE
:1002400016E341EA034306FB07F199420AD91CEB86
:10025000030306F1FF3080F01F81994240F21C81B8
:10026000023E63445B1AA4B2B3FBF8F008FB103300
:1002700044EA034400FB07F7A7420AD91CEB040435
:1002800000F1FF3380F00A81A74240F20781644405
:10029000023840EA0640E41B00261DB1D44000238A
:1002A000C5E900433146BDE8F0878B4209D9002DEE
:1002B00000F0EF800026C5E9000130463146BDE878
:1002C000F087B3FA83F6002E4AD18B4202D38242E2
:1002D00000F2F980841A61EB030301209E46002D91
:1002E000E0D0C5E9004EDDE702B9FFDEB2FA82F2E6
:1002F000002A40F09280A1EB0C014FEA1C471FFA44
:100300008CFE0126200CB1FBF7F307FB131140EA2A
:1003100001410EFB03F0884208D91CEB010103F1F7
:10032000FF3802D2884200F2CB804346091AA4B2B9
:10033000B1FBF7F007FB101144EA01440EFB00FE8D
:10034000A64508D91CEB040400F1FF3102D2A645F2
:1003500000F2BB800846A4EB0E0440EA03409CE791
:10036000C6F12007B34022FA07FC4CEA030C20FA3E
:1003700007F401FA06F31C43F9404FEA1C4900FA5E
:1003800006F3B1FBF9F8200C1FFA8CFE09FB1811DB
:1003900040EA014108FB0EF0884202FA06F20BD94E
:1003A0001CEB010108F1FF3A80F08880884240F29E
:1003B0008580A8F102086144091AA4B2B1FBF9F0E2
:1003C00009FB101144EA014100FB0EFE8E4508D9DD
:1003D0001CEB010100F1FF346CD28E456AD9023862
:1003E000614440EA0840A0FB0294A1EB0E01A14247
:1003F000C846A64656D353D05DB1B3EB080261EBB5
:100400000E0101FA07F722FA06F3F1401F43C5E98E
:10041000007100263146BDE8F087C2F12003D840C4
:100420000CFA02FC21FA03F3914001434FEA1C4706
:100430001FFA8CFEB3FBF7F007FB10360B0C43EAF8
:10044000064300FB0EF69E4204FA02F408D91CEBA8
:10045000030300F1FF382FD29E422DD902386344A6
:100460009B1B89B2B3FBF7F607FB163341EA034146
:1004700006FB0EF38B4208D91CEB010106F1FF3895
:1004800016D28B4214D9023E6144C91A46EA00468C
:1004900038E72E46284605E70646E3E61846F8E61E
:1004A0004B45A9D2B9EB020864EB0C0E0138A3E767
:1004B0004646EAE7204694E74046D1E7D0467BE748
:1004C000023B614432E7304609E76444023842E7C0
:1004D000704700BF0000000010B5002394B0CDE9C4
:1004E0000A33CDE90C33CDE90233CDE90433224997
:1004F00000930693086C214A40F080500864096C10
:1005000001F08051009100990193136843F48043F6
:10051000136013689FED147B03F480430221019361
:100520004FF480000623CDE90E10A822109308A8EE
:100530000723CDE911218DED087B1393019C00F079
:10054000D1FB9FED0B7B00224FF4A053CDE9042398
:1005500002A84FF4805305218DED027B069300F035
:10056000D1FD14B010BD00BF01000000000001006B
:100570000F00000002000000003802400070004040
:1005800008B501F0C5F8FFF7A7FF00F021F800F06B
:10059000C1F900F0E1F900F09BFAA82004F01CF981
:1005A000054C0121204606F0FBFA0028F9D100F0A5
:1005B00099F903F07FFAFEE7A00800200368B3F181
:1005C000804F00D0704701F0BDB800BF704700BF3A
:1005D0002DE9F04F2DED028B00248FB0CDE90844BA
:1005E000CDE90A44A24B00940C941A6BA14FDFF89A
:1005F0009C92DFF89C82A04D42F002021A631A6BB3
:1006000002F002020092009A01941A6B42F040023A
:100610001A631A6B02F040020192019A02941A6B5B
:1006200042F001021A631A6B02F001020292029A6E
:1006300003941A6B42F008021A631A6B02F0080264
:100640000392039A04941A6B42F004021A631A6B21
:1006500002F004020492049A05941A6B42F4807228
:100660001A631A6B02F480720592059A06941A6B4B
:1006700042F080021A631A6B02F080020692069A18
:1006800007941A6B42F020021A631B6B03F02003DD
:100690000793224638464FF48071079B00F030FFE5
:1006A0004846012240219FED6E8B00F029FF404615
:1006B0000122102100F024FF2846012241F201010D
:1006C00000F01EFF092608A9284660220223CDE972
:1006D00008238DED0A8B0C9600F0E4FD082308A991
:1006E00048460C934FF484420223CDE908234FF08F
:1006F000070B8DED0A8B00F0D5FD08A92846802256
:100700000223CDE908238DED0A8BCDF830B000F03F
:10071000C9FD08A90322022358480C96CDE90823F5
:100720008DED0A8B00F0BEFD08A938464FF44062FB
:100730000223CDE908238DED0A8BCDF830B000F00F
:10074000B1FD4F4B4F480A9408A9C022CDE90823B8
:1007500000F0A8FD08A940464FF400720223CDE93D
:1007600008238DED0A8BCDF830B09FED3F8B00F064
:1007700099FD4FF480720123CDE9082308A938467A
:1007800000220023CDE90A2300F08CFD08A9484689
:1007900040220123CDE908238DED0A8B00F082FD74
:1007A000394B4FF0010A484608A90822CDE9082331
:1007B000CDF828A000F076FD08A9404601220023CC
:1007C000CDE908234FF00209CDF828A000F06AFD1A
:1007D000404608A94FF0010810220123CDE9082363
:1007E000CDE90A8900F05EFD274BCDF828A03846F8
:1007F00008A93022CDE9082300F054FD01234FF46D
:10080000805208A92846CDE908238DED0A8B00F017
:1008100049FD08A928468DED088BCDE90A8900F02D
:1008200041FD22460521304600F026FF304600F00B
:1008300061FF224605210A2000F01EFF0A2000F079
:1008400059FF22460521172000F016FF172000F05F
:1008500051FF0FB0BDEC028BBDE8F08FAFF300800D
:100860000000000003000000010000000100000083
:10087000003802400008024000040240000C024020
:10088000000011100020024000002110001802405A
:100890000000024008B503F0F7FB03F037FD01202C
:1008A00003F040F9F9E700BF044B036010B4802364
:1008B000034C0C605DF8044B136070473803002054
:1008C00038010020054B036010B44FF48073044CD2
:1008D0000C605DF8044B1360704700BF8C0700206C
:1008E0008C03002010B5094C0FCC88B00DF1040C1E
:1008F000ACE80F0094E807008CE80700002101A88D
:1009000003F0DEF8024B186008B010BDBC80000890
:100910003401002000B583B000220E4B0192186B09
:1009200040F4800018631B6B03F4800305210193DE
:100930003A20019B00F0A0FE3A2000F0DBFE0022EE
:100940003B20052100F098FE3B2003B05DF804EB4E
:1009500000F0D0BE0038024010B50F480F4C4FF4E5
:100960008272C0E90042022101220023C0E9041280
:100970004FF4007410210A22C0E90233C0E9064195
:10098000C0E90833C0E90A3200F062FF00B910BDC7
:10099000BDE81040FFF71ABEA0080020003001405B
:1009A0002DE9F043424B02688BB000249A42CDE916
:1009B0000444CDE90644089402D00BB0BDE8F083AE
:1009C00003F5843301945A6C3A4E42F480525A64CF
:1009D0005A6C02F480520192019A02941A6B42F00E
:1009E00002021A631A6B02F002020292029A039444
:1009F0001A6B42F001021A631B6B03F001030393AD
:100A0000182202234FF001084FF00309052704A91B
:100A1000054629480897CDE90423CDE90689039BBB
:100A200000F040FC802202232448089704A9CDE965
:100A30000423CDE9068900F035FC214A74624FF0A9
:100A4000C063C6E9002330464FF480624FF4403360
:100A5000C6E90244C6E90424C6E90644336200F04C
:100A600061FDF0B9174C1849EE644FF0C062C4E95B
:100A700000124FF4806200234021226120464FF48F
:100A80000032C4E90213C4E90533C4E90732B5638F
:100A9000636200F047FD38B9AC64A5630BB0BDE8F4
:100AA000F083FFF793FDDDE7FFF790FDF4E700BF6C
:100AB00000300140E0070020000402400000024036
:100AC00040640240400800205864024000000000DA
:100AD00010B53349334C90B053220023C4E90012BF
:100AE000204640F2CF72CDE90833CDE90A33CDE993
:100AF0000C33C4E902320E932361A36101F010F8B4
:100B0000D8B9284801F09AF8F0B99FED217B00226E
:100B100024480A9208A98DED087B0C9201F030F967
:100B2000A8B91F4A216800239142CDE90233CDE9DB
:100B3000043306930ED010B010BDFFF747FD1948DF
:100B400001F07CF80028E0D0FFF740FDDDE7FFF77B
:100B50003DFDE6E702F574420193136B124843F042
:100B600020031363136B9FED0C7B03F020030193B1
:100B700001220223CDE9042302A903238DED027B88
:100B8000019A069300F08EFB10B010BDAFF3008009
:100B900060000000000000004000000002000000B3
:100BA00000440140F8080020001402400A4B02688B
:100BB0009A4200D0704782B003F57443002201923C
:100BC0005A6C42F400325A645B6C03F400330193B4
:100BD000019B02B0704700BF00440140704700BF56
:100BE000FEE700BFFEE700BFFEE700BFFEE700BF75
:100BF000704700BF082000F089BC00BF102000F043
:100C000085BC00BF08B5202000F080FC402000F02B
:100C10007DFCBDE80840802000F078BC014801F070
:100C2000BFB900BF3809002082B00E4B00220092ED
:100C3000596C41F480415964586C00F48040009034
:100C400000980192186C40F0805018641B6C03F0FF
:100C500080530193019B0F216FF0010002B000F05F
:100C60000BBD00BF0038024030B5014689B00022FC
:100C70001C2000F001FD1C2000F03CFD0025164B5F
:100C800002951A6C154C42F001021A641B6C03F0B9
:100C9000010301A903A80293029B00F0E1FA00F00E
:100CA000CFFA0F4AA5604300A2FB03239B0C013B34
:100CB0004FF0804140F2E7322046C4E903256360EB
:100CC000216000F02DFF10B1012009B030BD204699
:100CD00000F0A2FF09B030BD003802403809002002
:100CE00083DE1B43002800F09C812DE9F04103685E
:100CF000DD0782B004462FD59E498A6802F00C02B7
:100D0000042A00F0ED808A6802F00C02082A00F044
:100D1000E3806368B3F5803F00F0EC80B3F5A02F6B
:100D200000F06F81934D2A6822F480322A602A688D
:100D300022F480222A60002B40F0E18000F00EFDBA
:100D4000064605E000F00AFD801B642800F20181E0
:100D50002B689B03F6D423689F0728D5854A9168A2
:100D600011F00C0F00F09080916801F00C0108293F
:100D700000F08680E368002B00F00E817E4B7D4EF4
:100D800001221A6000F0EAFC054605E000F0E6FCEE
:100D9000401B022800F2DD8033689807F6D53368DF
:100DA000226923F0F80343EAC203336023681A0779
:100DB00051D458072FD56F4A136C13F080537FD04E
:100DC00000256E4E3368D90540F1B380A368012B2E
:100DD00000F0C380052B00F02681664E326F22F0B2
:100DE00001023267326F22F004023267002B40F0BA
:100DF000B98000F0B3FC41F28838074605E000F006
:100E0000ADFCC01B404500F2A480336F9807F6D4B8
:100E1000002D40F00081A069C8B1564DAB6803F0C9
:100E20000C03082B00F0C980534B002202281A66DD
:100E300000F0038100F092FC044605E000F08EFC17
:100E4000001B022800F285802B689B01F6D400204D
:100E500002B0BDE8F08163690BB3474B454E0122F8
:100E6000C3F8802E00F07AFC054604E000F076FC22
:100E7000401B02286DD8736F9B07F7D5236898E74E
:100E8000526856023FF576AF3A4A1268950744D544
:100E9000E268012A41D0012002B0BDE8F081364A63
:100EA000344EC2F8803E00F059FC054604E000F0E4
:100EB00055FC401B02284CD8736F9F07F7D4DDE721
:100EC0000193136C43F080531364136C03F080534D
:100ED0000193019B012574E74A6850027FF519AF21
:100EE000244A126891037FF537AF6268002A7FF4C5
:100EF00033AFD0E71F4A136843F48033136000F028
:100F00002DFC1C4E054604E000F028FC401B642824
:100F10001FD833689A03F7D51DE7164920690A6878
:100F200022F0F80242EAC0020A601A077FF541AFD8
:100F300091E7336843F48073336000F00FFC074699
:100F40003368DA053FF542AF00F008FCC01B022809
:100F5000F6D9032002B0BDE8F081064A136F43F0D2
:100F60000103136700F0FAFB024F064641F288388E
:100F70000BE000BF00380240000047420070004014
:100F800000F0ECFB801B4045E3D83B6F9B07F7D597
:100F9000002D3FF440AF3EE03E4A3F4E136000F06C
:100FA000DDFB054604E000F0D9FB401B0228D0D849
:100FB00033689907F7D42368F9E601283FF448AF6E
:100FC0006B68E26903F4800191427FF464AF226AA6
:100FD00003F03F0191427FF45EAF616A47F6C07251
:100FE0001A408A427FF457AFA26A03F4403191421B
:100FF0007FF451AFE06A03F07063181A18BF012044
:1010000026E7254B1A6842F480221A601A6842F4D7
:1010100080321A6073E7204A136C23F08053136404
:10102000F9E6012070471C4B1A6F42F004021A6760
:101030001A6F42F001021A6794E700F08FFB064630
:1010400004E000F08BFB801B022882D82B689901FA
:10105000F7D4D4E90731626A0B4343EA8213D4E937
:101060000A21520843EA0163013A0A4943EA02436A
:1010700001226B600A6600F071FB074D044605E033
:1010800000F06CFB001B02283FF663AF2B689A014F
:10109000F6D5DCE60000474200380240164908B5A4
:1010A0008B6803F00C03042B1BD0082B17D14A6864
:1010B0004B68496813F4800302F03F0213D10F48D4
:1010C000C1F38811A1FB0001FFF782F80A4B5B68AE
:1010D000C3F3014301335B00B0FBF3F008BD0748E5
:1010E00008BD074808BD0648C1F388110023A1FBCD
:1010F0000001FFF76DF8E9E7003802400024F40032
:10110000001BB700002800F08780484A136803F0EE
:101110000F038B422DE9F0410D46044609D2CBB2B4
:101120001370136803F00F038B4202D00120BDE857
:10113000F0812368980714D5590704D53C498A687B
:1011400042F4E0528A601A0704D539498A6842F4A9
:1011500060428A603649A0688A6822F0F002024341
:101160008A60DF0721D56268012A57D0931E012BC0
:101170002F4B1B684DD99907D8D52D4EB36823F056
:1011800003031343B36000F0E9FA41F288380746DD
:1011900004E000F0E3FAC01B404544D8B36862683D
:1011A00003F00C03B3EB820FF3D1204A136803F072
:1011B0000F03AB4206D9EBB21370136803F00F03B1
:1011C000AB42B3D123685A0706D51949E0688A684B
:1011D00022F4E05202438A601B0707D5144A2169B2
:1011E000936823F4604343EAC1039360FFF756FF1B
:1011F0000F4A104C92681049C2F303120346A25CD6
:101200000E48D34000680B60FFF72EFD0020BDE8BC
:10121000F0819801B1D489E701207047044B1B6825
:101220009E03AAD482E7032081E700BF003C02406E
:1012300000380240F0800008080000200400002070
:10124000044B05499B68054A0868C3F38223D35CB5
:10125000D840704700380240080000200081000894
:101260000E4B0F2202609A6802F0030242609A68F5
:1012700002F0F00282609A6802F4E052C2609B6859
:10128000DB0810B403F4E053054C036123685DF8F8
:10129000044B03F00F030B60704700BF003802409F
:1012A000003C02402DE9F04F00220D68DFF848A213
:1012B00085B0134605E00133102B02F1020200F065
:1012C000A08001249C4004EA050BAC43F3D14F6895
:1012D00027F0100E0EF1FF34012C40F29580D0F86B
:1012E0000CE08C684FF0030C0CFA02FC94402EEAE0
:1012F0000C0E44EA0E04C4606FEA0C04D0F800C07F
:101300000CEA040C07F00304944044EA0C04046063
:10131000FC00D0D500240394DAF844406F4E44F426
:101320008044CAF84440DAF8444004F4804403940A
:10133000039C23F0030404F1804404F59C3403F07F
:10134000030ED4F808804FEA8E0E4FF00F0C0CFA03
:101350000EFCB04228EA0C0C24D006F58066B042A0
:1013600000F092805E4EB04200F095805D4EB0423B
:1013700000F098805C4EB04200F09B805B4EB04223
:1013800000F09E805A4EB04200F0A180DFF86C81E0
:1013900040450CBF4FF007084FF0080808FA0EFE52
:1013A0004CEA0E0CC4F808C0524C24686FEA0B0CCF
:1013B000FE03504E54BF0CEA04044BEA04043460AC
:1013C0007468BE034B4E54BF0CEA04044BEA040499
:1013D0007460B468FE02474E54BF0CEA04044BEA42
:1013E0000404B460F4680133BE02424E54BF0CEAF8
:1013F00004044BEA0404102BF46002F102027FF4AF
:1014000060AF05B0BDE8F08FD0F808C0CC688E683A
:101410004FF0030909FA02F92CEA090C944044EA56
:101420000C048460446824EA0B0CC7F300149C404D
:1014300044EA0C044460C46806FA02FC24EA090881
:101440004CEA080CBEF1020F6FEA0904C0F80CC0A8
:101450007FF454AF4FEAD30E00EB8E0E03F0070873
:10146000DEF8206001960E694FEA880806FA08FC4B
:101470004FF00F09019E09FA08F826EA08094CEA1C
:10148000090CCEF820C039E74FF0010808FA0EFE2B
:101490004CEA0E0C86E74FF0020808FA0EFE4CEA02
:1014A0000E0C7FE74FF0030808FA0EFE4CEA0E0C14
:1014B00078E74FF0040808FA0EFE4CEA0E0C71E7CC
:1014C0004FF0050808FA0EFE4CEA0E0C6AE74FF0E2
:1014D000060808FA0EFE4CEA0E0C63E70000024014
:1014E00000080240000C02400010024000140240BC
:1014F00000180240003C014000380240001C02403D
:1015000002B9090481617047704700BF044A5169FC
:10151000014200D1704708B55061FFF7F5FF08BDE3
:10152000003C014038B5044600F018F9002C52D0B8
:1015300023680222002184F8341084F835201A68C8
:1015400022F0010205461A6005E000F007F9431B8E
:10155000052B39D823681A68D107F6D4D4E90120BD
:10156000E16802430A43D4E90451A0692A430A43CB
:10157000E1691D6802430A4333492940256A2A4329
:101580000A43616A042928D01A605A6922F00702C6
:101590001143D8B22D4A59611038A2FB00521209EA
:1015A0002B4923F47F73895CE16523F003035F28F3
:1015B00088BF04333F228A40A36500209A6001233C
:1015C000606584F8353038BD03232022626584F8D5
:1015D0003530184638BD012038BDD4E90B512943B8
:1015E0000A431A605969A26A21F00701114341F0C8
:1015F0000401002DCDD078B1B0F5005F16D0022ADD
:1016000003D9032AC5D1EA01C3D50123402262656B
:1016100084F83530184638BD012A03D032F0020272
:10162000B7D1F0E7B5F1C07FB3D1EEE7032AB0D868
:1016300001A050F822F000BF0B16000807160008A2
:101640000B160008251600083F8010F0ABAAAAAAC6
:10165000E88000080749CA6803024FF6FF0003F458
:10166000E0630240134343F0BF6343F40033CB60B5
:10167000704700BF00ED00E01C4BDB68C3F30223A2
:1016800000B5C3F1070EBEF1040F03F1040C28BF2F
:101690004FF0040EBCF1060F1BD9033B4FF0FF3C8B
:1016A0000CFA03FC22EA0C024FF0FF3C0CFA0EFC91
:1016B00021EA0C019940002841EA02010CDB00F10B
:1016C0006040090100F56140C9B280F800135DF87F
:1016D00004FB00221346E7E7054B00F00F00090169
:1016E0000344C9B219765DF804FB00BF00ED00E0C9
:1016F000FCEC00E0002808DB4109044A00F01F0070
:10170000012303FA00F042F82100704700E100E0F5
:1017100008B50B4B1A6842F400721A601A6842F45A
:1017200080621A601A6842F480721A600320FFF720
:1017300091FF0020FFF798FAFFF776FA002008BD26
:10174000003C0240034A044B11681B780B441360B1
:10175000704700BF7809002000000020014B186886
:10176000704700BF7809002038B50446FFF7F6FF40
:10177000631C054602D0044B1B781C44FFF7EEFFA8
:10178000431BA342FAD338BD000000202E4B70B596
:101790001B682E4D0446A5FB03035B0D4FF47A70C6
:1017A00000FB03F3606882B0B0F5827F019307D13C
:1017B0000CE0019B2268013B019393681B0602D554
:1017C000019B002BF5D1002002B070BD0D461646DE
:1017D0006B1C206803D183681906FCD4F3E7836887
:1017E0001A06F0D5FFF7BAFF801B8542F0D8D4E97E
:1017F00000315A68B1F5827F22F0E0025A6017D0BA
:10180000A26AB2F5005F07D11A6822F400521A608A
:101810001A6842F400521A60012384F85130636D53
:10182000002243F0200384F8502063650320CBE7B7
:10183000A268B2F5004F02D0B2F5806FE0D11A680D
:1018400022F040021A60DBE708000020819F5E164C
:1018500000283BD038B590F851200023044683621D
:1018600002F0FF0162B31846D4E90131E26825684D
:101870000B431343D4E904120B431343E2690221DF
:1018800084F851101343226A29681343A26921F096
:101890004001296002F4007C616A120C43EA0C03E7
:1018A00002F0040203430A432B606A60EB690020E4
:1018B00023F400630122EB61606584F8512038BD98
:1018C00080F85010FFF76CF8A06ACDE70120704750
:1018D0002DE9F043044690F8500083B001280A9D9A
:1018E00000F083801F46012384F8503089469046DB
:1018F000FFF734FF064694F8510063680128C1B22F
:1019000011D0B3F5827F09D002200122002384F890
:10191000512084F8503003B0BDE8F083A268002A5B
:10192000F2D10429F0D1B9F1000F62D0B8F1000F63
:101930005FD0002F5DD094F85120C4F83880042A7D
:101940001CBF052284F8512000226265C4E91022E0
:101950002268E787E7861168A7874906C4F83090B0
:10196000A78603D4116841F040011160E168B1F528
:10197000006F4ED0002B3ED0012F3CD00127E38ECC
:101980009BB21BB9E38F9BB2002B7FD02268936878
:1019900099070FD5E38E9BB263B15FB1236B1B78C0
:1019A0001373E38E226B013B01329BB222632268E8
:1019B000E3860027936813F001030DD0E18F89B20D
:1019C00051B11F46A36BD2681A70A36B0133A36396
:1019D000E38F013B9BB2E387FFF7C0FE801BA84269
:1019E00014D36B1CCBD003208FE7022003B0BDE8DB
:1019F000F083012089E799F800301373E38E226B9E
:101A0000013B01329BB22263E386B7E7002DB6D1DA
:101A1000E9E7002B4DD1494631F8023BD360E38E14
:101A20002163013B9BB2E3866A1C4FF0010725D07E
:101A300042E0226893689B070DD5E38E9BB253B1B9
:101A40004FB1216B31F8023BD360E38E2163013B40
:101A50009BB20027E386936813F001030CD0E18F5B
:101A600089B249B1D168A26B22F8021B1F46E38FED
:101A7000A263013B9BB2E387FFF770FEE38E9BB24C
:101A8000002BD6D1E38F9BB2002BD2D13246294610
:101A90002046FFF77BFE00283ED1A368002B7FF491
:101AA00034AF23680190DA6801929B680193019B2F
:101AB0002BE7012FB8D1AEE7E38E9BB21BB9E38FC2
:101AC0009BB2002BE2D02268936898070DD5E38E75
:101AD0009BB253B14FB1236B33F8021BD160236328
:101AE000E38E013B9BB20027E386936813F001036A
:101AF0000CD0E18F89B249B1D168A26B22F8021BE8
:101B00001F46E38FA263013B9BB2E387FFF726FEEC
:101B1000801BA842D0D366E7202363650120F4E64A
:101B2000002874D010B590F83D30044603F0FF0251
:101B3000002B67D022683749022384F83D308A425F
:101B400013684BD0B2F1804F31D0A1F57C418A426D
:101B50002DD001F580618A4229D001F580618A4249
:101B600025D001F578418A4238D001F570518A427A
:101B700021D001F580618A421DD001F580618A4241
:101B800019D0A1F598318A4215D001F580618A42B9
:101B900011D001F580618A420DD0A069E16823F07F
:101BA0008003034313606368D162936210E0A1680D
:101BB00023F070030B432069A16923F440730343AE
:101BC00023F08003E0680B4361681360D062916288
:101BD0000123536184F83D30002010BDA0682169C5
:101BE00023F07003034323F440730B43A16923F0F4
:101BF00080030B431360E368D36263689362636995
:101C00001363E5E780F83C20FEF7D0FF92E7012060
:101C1000704700BF000001400368DA6842F001022B
:101C2000DA609A6802F00702062A03D01A6842F0C6
:101C300001021A6000207047704700BF002874D06E
:101C400010B590F83D30044603F0FF02002B67D03A
:101C500022683749022384F83D308A4213684BD00A
:101C6000B2F1804F31D0A1F57C418A422DD001F5EF
:101C700080618A4229D001F580618A4225D001F530
:101C800078418A4238D001F570518A4221D001F55D
:101C900080618A421DD001F580618A4219D0A1F588
:101CA00098318A4215D001F580618A4211D001F540
:101CB00080618A420DD0A069E16823F0800303436C
:101CC00013606368D162936210E0A16823F070032F
:101CD0000B432069A16923F44073034323F080037D
:101CE000E0680B4361681360D06291620123536125
:101CF00084F83D30002010BDA068216923F07003F6
:101D0000034323F440730B43A16923F080030B4387
:101D10001360E368D3626368936263691363E5E702
:101D200080F83C20FFF788FF92E70120704700BF52
:101D30000000014003680122186A01F01F0102FA45
:101D400001F120EA01001862186A0C4A014393422B
:101D500019620ED002F5806293420AD09A6802F0AE
:101D60000702062A03D01A6842F001021A60002016
:101D700070475A6C42F400425A64EFE70000014099
:101D800090F83C30012B00F0CA804FF0010C022388
:101D9000F0B480F83CC080F83D300C2A32D8DFE83F
:101DA00002F00731313168313131943131313A004B
:101DB00003680E681A6A22F001021A621A6A5D68E4
:101DC0009C6924F0730434438E6822F0020232438B
:101DD0006E4EB34200F0A58006F58066B34200F077
:101DE000A0805D609C614C685C631A629C690D69AF
:101DF00044F008049C61996921F0040199619A6991
:101E00002A439A610023012280F83D2080F83C306B
:101E1000F0BC1846704703680E681A6A22F48052B4
:101E20001A621A6A5D68DC6924F4E64444EA06240E
:101E30008E6822F4005242EA0632544EB34200F059
:101E40008F8006F58066B34200F08A805D60DC61B9
:101E50004C681C641A62DC690D6944F40064DC613E
:101E6000D96921F48061D961DA6942EA0522DA612F
:101E7000C8E703680E681A6A22F010021A621A6A2A
:101E80005D689C6924F4E64444EA06248E6822F0E6
:101E9000200242EA06123D4EB34251D006F580665A
:101EA000B3424DD05D609C614C689C631A629C6932
:101EB0000D6944F400649C61996921F48061996121
:101EC0009A6942EA05229A619CE703680E681A6AD9
:101ED00022F480721A621A6A5D68DC6924F0730465
:101EE00034438E6822F4007242EA0622274EB3423F
:101EF0003CD006F58066B34238D05D60DC614C684A
:101F0000DC631A62DC690D6944F00804DC61D9699C
:101F100021F00401D961DA692A43DA6172E702200B
:101F20007047CE6822F008023243D1E9057625F4E5
:101F3000407547EA060C22F004024CEA050550E71A
:101F4000CE6822F0800242EA0612D1E9057625F435
:101F5000406547EA060C22F0400245EA8C05A1E7FD
:101F60004E6925F4804545EA86156FE7CE6822F470
:101F7000006242EA0622D1E9057625F4405547EA97
:101F8000060C22F4806245EA0C15B6E70000014019
:101F9000704700BF704700BF704700BF704700BF69
:101FA00003681A69910710B5044602D5DA689207EA
:101FB0005FD41A69500702D5DA68510746D41A6906
:101FC000120702D5DA6810072ED41A69D20602D594
:101FD000DA68D00618D41A69D10702D5DA68D207B0
:101FE0005DD41A69100602D5DA6811065FD41A6941
:101FF000520602D5DA68500661D41A69910602D5F4
:10200000DA68920643D410BD6FF0100108221961FE
:102010002277DB6913F4407F204664D0FFF7BAFFD4
:10202000002223682277D6E76FF0080104221961A5
:102030002277DB699907204652D1FFF7A9FF204696
:10204000FFF7AAFF002223682277BEE76FF00401A2
:102050000222196122779B6913F4407F20463CD10C
:10206000FFF796FF2046FFF797FF002223682277AD
:10207000A5E76FF002010122196102779B699B07B6
:1020800025D0FFF787FF00222368227791E76FF0C2
:10209000200220461A61BDE8104000F02BB86FF016
:1020A00001021A612046FEF789FA236899E76FF06A
:1020B00080021A61204600F01FF8236897E76FF04E
:1020C00040021A612046FFF769FF236895E7FFF792
:1020D0005FFF2046FFF760FFD5E7FFF75BFFC4E730
:1020E000FFF758FFAEE7FFF753FF2046FFF754FF17
:1020F00096E700BF704700BF704700BF054BD3F89D
:1021000088204FF0006142F47002C3F88820996083
:10211000704700BF00ED00E000F108034FF0FF3111
:102120000022C0E90131C0E903330260704700BFFB
:1021300000230361704700BF43689A688A600268A1
:1021400010B49C684B600132616099605DF8044B8B
:1021500008610260704700BF30B40D686B1C10D07E
:1021600000F108031C465B681A68AA42FAD90268A3
:102170004B60013299608C606160086130BC026024
:10218000704704696368F2E7036910B4D0E901128B
:102190005C688A608442516008BF5A601A685DF8C2
:1021A000044B0021013A01611A601868704700BFB2
:1021B00070B50446006CA66B20B925684DB3013696
:1021C000A66370BD154602467DB9606804F08EFEB8
:1021D0006368226C1344A2686360934224BF23683F
:1021E000636001362846A66370BDE06804F07EFE99
:1021F000226CE36851429B1A2268E360934202D248
:10220000A3680B44E360022D08D001360020A663CA
:1022100070BDA06801F004FAA560D0E7012E38BFB8
:1022200001260020CCE700BF40B94FF0500383F3F4
:102230001188BFF36F8FBFF34F8FFEE710B51C46B9
:1022400082B07BB102B3B1B148230193019B482B0B
:1022500026D04FF0500383F31188BFF36F8FBFF385
:102260004F8FFEE74FF0500383F31188BFF36F8F5A
:10227000BFF34F8FFEE74FF0500383F31188BFF396
:102280006F8FBFF34F8FFEE799BB48220192019AEF
:10229000482ADED1012284F84620019B224604E030
:1022A0004FF0010C019B84F846C0C4E90F01226085
:1022B00001F0B8FDD4E90F122368636002FB01F15D
:1022C0008A1A19441A44A1600020FF21A063E26029
:1022D00084F8441004F1100084F84510FFF71CFF47
:1022E00004F12400FFF718FF01F0BEFD204602B004
:1022F00010BD4FF0500383F31188BFF36F8FBFF30E
:102300004F8FFEE72DE9F04385B00192002800F0E1
:10231000A48088461F460446002900F09180022FC1
:102320000BD1E36B012B08D04FF0500383F31188DE
:10233000BFF36F8FBFF34F8FFEE701F061F90546E2
:10234000002800F09380002504F1240601F06AFDC6
:10235000A26BE36B9A42C0F0EF80022F00F0EC809A
:102360000198002800F00181002D00F0E18001F0CB
:102370007BFD00F007FE01F055FD94F84430FF2B83
:1023800004BF002384F8443094F84530FF2B04BF89
:10239000002384F8453001F067FD01A902A801F08F
:1023A000D5F8002840F0E68001F03CFDA26BE36B1D
:1023B0009A4268D001F058FD01F034FD94F84520B0
:1023C00055B2002D04DC11E06A1ED3B255B26BB1D8
:1023D000636A304653B101F065F80028F4D001F08B
:1023E00009F96A1ED3B255B2002BF1D1FF2384F84C
:1023F000453001F039FD01F015FD94F8442055B247
:10240000002D14DD04F1100903E06A1ED3B255B2A9
:102410006BB12369484653B101F044F80028F4D069
:1024200001F0E8F86A1ED3B255B2002BF1D1FF23B8
:1024300084F8443001F018FD00F0FEFE012585E728
:10244000036C002B3FF46BAF4FF0500383F3118804
:10245000BFF36F8FBFF34F8FFEE74FF0500383F34F
:102460001188BFF36F8FBFF34F8FFEE7019B002BE7
:102470003FF46AAF4FF0500383F31188BFF36F8FBF
:10248000BFF34F8FFEE704F1100901F0EDFC019955
:10249000484600F049FF01F0C5FC94F845305DB2B4
:1024A000002D04DC11E06B1EDAB25DB26AB1636A22
:1024B000304653B100F0F6FF0028F4D001F09AF84E
:1024C0006B1EDAB25DB2002AF1D1FF2384F84530E9
:1024D00001F0CAFC01F0A6FC94F844305DB2002D76
:1024E00004DC11E06B1EDAB25DB26AB123694846C2
:1024F00053B100F0D7FF0028F4D001F07BF86B1E39
:10250000DAB25DB2002AF1D1FF2384F8443001F041
:10251000ABFC00F091FE002890D14FF0E0234FF08B
:102520008052C3F8042DBFF34F8FBFF36F8F85E741
:1025300002A800F0FFFF1AE73A4641462046FFF79F
:1025400037FE636A002B53D148B14FF0E0234FF0C0
:102550008052C3F8042DBFF34F8FBFF36F8F01F08C
:1025600083FC012005B0BDE8F083009001F07CFC05
:102570000098F7E701F056FC94F845305DB2002D65
:1025800010DD04F1240603E06B1EDAB25DB24AB13D
:10259000636A304633B100F085FF0028F4D001F0C3
:1025A00029F8F1E7FF2384F8453001F05DFC01F0E4
:1025B00039FC94F844305DB2002D10DD04F11006B2
:1025C00003E06B1EDAB25DB24AB12369304633B123
:1025D00000F068FF0028F4D001F00CF8F1E7FF23C9
:1025E00084F8443001F040FC00F026FE0020B9E7FA
:1025F00004F1240000F056FF0028B0D0A5E700BF8A
:102600002DE9F04385B00192002800F05F810F466C
:102610000446002900F0948000F0F2FF002800F04A
:102620009C8001F0FFFBA56B002D72D1019B002B5C
:1026300000F0F18002A800F07DFFA84604F1240616
:1026400001F012FC00F09EFC01F0ECFB94F8443029
:10265000FF2B08BF84F8448094F84530FF2B08BF57
:1026600084F8458001F000FC01A902A800F06EFF8B
:1026700000287FD101F0D6FBA36B002B00F0D180A6
:1026800001F0F2FB01F0CEFB94F845305DB2002D75
:1026900004DC11E06B1EDAB25DB26AB1636A3046E7
:1026A00053B100F0FFFE0028F4D000F0A3FF6B1E32
:1026B000DAB25DB2002AF1D1FF2384F8453001F08F
:1026C000D3FB01F0AFFB94F844305DB2002D14DD74
:1026D00004F1100903E06B1EDAB25DB26AB123693E
:1026E000484653B100F0DEFE0028F4D000F082FF2F
:1026F0006B1EDAB25DB2002AF1D1FF2384F84430B8
:1027000001F0B2FB00F098FD01F08CFBA56B002DF1
:102710007DD0226C52B1E168A36811449942E16016
:1027200024BF2168E160384604F0E0FB013DA56369
:102730002369002B40F0D38001F096FB01206DE06F
:10274000036C002B3FF468AF4FF0500383F3118804
:10275000BFF36F8FBFF34F8FFEE7019B002B3FF45A
:1027600060AF4FF0500383F31188BFF36F8FBFF357
:102770004F8FFEE701F056FB94F845305DB2002D17
:1027800004DC11E06B1EDAB25DB26AB1636A3046F6
:1027900053B100F087FE0028F4D000F02BFF6B1E31
:1027A000DAB25DB2002AF1D1FF2384F8453001F09E
:1027B0005BFB01F037FB94F844305DB2002D14DD73
:1027C00004F1100903E06B1EDAB25DB26AB123694D
:1027D000484653B100F066FE0028F4D000F00AFF2E
:1027E0006B1EDAB25DB2002AF1D1FF2384F84430C7
:1027F00001F03AFB00F020FD01F014FBA36B53B194
:1028000001F032FB01F00EFBA56B002D81D1019B85
:10281000002B7FF415AF01F027FB002005B0BDE8C9
:10282000F08301F021FB0199304600F07DFD01F0BD
:10283000F9FA94F845305DB2002D04DC11E06B1E0E
:10284000DAB25DB26AB1636A304653B100F02AFE73
:102850000028F4D000F0CEFE6B1EDAB25DB2002A82
:10286000F1D1FF2384F8453001F0FEFA01F0DAFAE5
:1028700094F844305DB2002D14DD04F1100903E03A
:102880006B1EDAB25DB26AB12369484653B100F0FB
:1028900009FE0028F4D000F0ADFE6B1EDAB25DB286
:1028A000002AF1D1FF2384F8443001F0DDFA00F072
:1028B000C3FC0028A6D14FF0E0234FF08052C3F8AC
:1028C000042DBFF34F8FBFF36F8F9BE74FF0500383
:1028D00083F31188BFF36F8FBFF34F8FFEE704F1CF
:1028E000100000F0DFFD00283FF426AF4FF0E0239A
:1028F0004FF08052C3F8042DBFF34F8FBFF36F8F9B
:102900001AE700BF124B1A687AB19A6862B11A6965
:1029100092B19A6992B11A6A92B19A6A92B11A6B9B
:1029200092B19A6B92B17047012203EBC20C43F84B
:102930003210CCF8040070470222F6E70322F4E7D5
:102940000422F2E70522F0E70622EEE70722ECE791
:102950008009002070B505460E46144601F062FA63
:1029600095F84430FF2B04BF002385F8443095F8D8
:102970004530FF2B04BF002385F8453001F074FA81
:10298000AB6B002B43D001F04DFA95F845305CB2AB
:10299000002C14DD05F1240603E0631EDAB25CB2FC
:1029A0006AB16B6A304653B100F07CFD0028F4D068
:1029B00000F020FE631EDAB25CB2002AF1D1FF23E0
:1029C00085F8453001F050FA01F02CFA95F84430C2
:1029D0005CB2002C14DD05F1100603E0631EDAB2D0
:1029E0005CB26AB12B69304653B100F05BFD002840
:1029F000F4D000F0FFFD631EDAB25CB2002AF1D120
:102A0000FF2385F84430BDE8704001F02DBA22461E
:102A1000314605F1240000F0DBFCB4E72DE9F84372
:102A2000044601F0FFF9344A344D13680133136052
:102A30002B68002B32D0324E33683BB3E36A314F00
:102A400031483249026801320260086801229A4026
:102A5000024303EB83030A6007EB8300211DFFF7AA
:102A60006BFB01F001FA336873B12A68E36AD26A3A
:102A70009A4209D24FF0E0234FF08052C3F8042D60
:102A8000BFF34F8FBFF36F8FBDE8F8832A68E36A07
:102A9000D26A1C4F9A4298BF2C60D1E72C60136811
:102AA000012B03D0E36A174F154EC9E7154F3E4679
:102AB00007F18C0830461436FFF72EFBB045F9D1EC
:102AC000DFF86090DFF860800D4E4846FFF724FB8A
:102AD0004046FFF721FB0E48FFF71EFB0D48FFF7AE
:102AE0001BFB0D48FFF718FB0C4BC3F800900C4B79
:102AF000C3F80080E36AA3E7580A0020C009002059
:102B0000B40A0020CC090020680A00206C0A0020CA
:102B1000A00A0020CC0A0020B80A0020C409002026
:102B2000C8090020700A0020840A0020F8B51D4E54
:102B30001D4B05461C68336830680022043083F85A
:102B400052200F46FFF720FB48B933681749DA6A6D
:102B5000012303FA02F20B6823EA02030B606B1CE9
:102B600017D0336864195C6007D3114B186831685B
:102B7000BDE8F8400431FFF7EFBA0E4B1868316832
:102B80000431FFF7E9FA0C4B1A68A24288BF1C60B7
:102B9000F8BD002FE5D031680848BDE8F8400431A1
:102BA000FFF7CABAC0090020E00A00206C0A002022
:102BB000C8090020C4090020980A0020B80A002093
:102BC0002DE9F0470A9CDDF824804FEA82094A4645
:102BD00006460D46206BA5211F4604F095F9236B90
:102BE000A9F10409994429F00709002D7FD02B7819
:102BF00084F834302B78002B4DD06B7884F8353046
:102C00006B78002B47D0AB7884F83630AB78002B4C
:102C100041D0EB7884F83730EB78002B3BD02B7920
:102C200084F838302B79002B35D06B7984F8393023
:102C30006B79002B2FD0AB7984F83A30AB7953B352
:102C4000EB7984F83B30EB792BB32B7A84F83C306A
:102C50002B7A03B36B7A84F83D306B7ADBB1AB7AB5
:102C600084F83E30AB7AB3B1EB7A84F83F30EB7A3C
:102C70008BB12B7B84F840302B7B63B16B7B84F86A
:102C800041306B7B3BB1AB7B84F84230AB7B13B103
:102C9000EB7B84F84330002384F84330089D062DF5
:102CA00028BF06254FF0000AE5626564201DC4F8C0
:102CB00048A0FFF73DFAC5F1070504F11800FFF73A
:102CC00037FAC4F84CA0A5612461646284F850A06E
:102CD00084F852A03A463146484601F077F8206021
:102CE000B8F1000F01D0C8F80040BDE8F08784F8C3
:102CF0003450D3E780B5214C214E224D224F4FF066
:102D0000E0294FF08058236853B301F08BF8F36843
:102D1000D3F80CA00AF10400FFF736FA2B68013B48
:102D20002B602368013B236001F09EF89AF8513034
:102D300063B1012B1ED0022BE5D04FF0500383F37B
:102D40001188BFF36F8FBFF34F8FFEE7DAF83000C3
:102D500000F0A2FF504600F09FFF2368002BD4D163
:102D60003B68012BCFD9C9F8048DBFF34F8FBFF358
:102D70006F8FC8E7504600F08FFFC4E75C0A002061
:102D8000CC0A0020580A0020CC09002030B587B0BA
:102D90000B9CC4B10C9D6DB154250595059D542D1A
:102DA0001AD04FF0500383F31188BFF36F8FBFF336
:102DB0004F8FFEE74FF0500383F31188BFF36F8FFF
:102DC000BFF34F8FFEE74FF0500383F31188BFF33B
:102DD0006F8FBFF34F8FFEE70C9D2C63022485F8A5
:102DE000514004ACCDE901450A9C0094059CFFF7D5
:102DF000E7FE0C98FFF712FE049807B030BD00BF45
:102E00002DE9F043074685B090001546884699465F
:102E100000F090FED8B10446542000F08BFE064628
:102E2000D0B10463002486F851400D9C01940C9CA1
:102E300002964B462A46414638460094FFF7C0FEAC
:102E40003046FFF7EBFD012005B0BDE8F0834FF001
:102E5000FF3005B0BDE8F083204600F01DFF4FF0C5
:102E6000FF30F1E770B584B06846002402AA01A9DA
:102E7000CDE90044FDF718FD0198C8B1009D75B17A
:102E800054230393039A029E9A421AD04FF05003A0
:102E900083F31188BFF36F8FBFF34F8FFEE74FF0BF
:102EA000500383F31188BFF36F8FBFF34F8FFEE79B
:102EB0004FF0500383F31188BFF36F8FBFF34F8F31
:102EC000FEE7B6000223324685F85130A52128637B
:102ED000039B04F019F82A6B25496963331F281DE9
:102EE000C5E9114485F8384085F84340EC62D618AE
:102EF000FFF71EF905F11800FFF71AF926F007068B
:102F000007231C49AB612246EC642D616D6285F894
:102F1000504085F85240304600F058FF286028465F
:102F2000FFF77CFD00F068FD01280CD0013001D0D6
:102F300004B070BD4FF0500383F31188BFF36F8F5F
:102F4000BFF34F8FFEE74FF0500383F31188BFF3B9
:102F50006F8FBFF34F8F0849084A094B4FF0FF3579
:102F60000D6010601C6004B0BDE8704000F0ECBF64
:102F700049444C45F52C0008980A0020B40A00206A
:102F8000E00A0020024A136801331360704700BF53
:102F9000640A0020014B1868704700BFE00A002057
:102FA0002DE9F04F4F4B1B6883B0002B4BD14E4B9C
:102FB0001D6801351D60002D53D04C4B01931B68DB
:102FC000AB4266D84A4EDFF840813368DFF83C9167
:102FD0001C68002C77D0474F00244FF0010A24E0F2
:102FE0000091FFF7D1F8DBF8282000990BF11800C9
:102FF00012B1FFF7C9F80099DBF82C003B680AFA18
:1030000000F200EB80001A4308EB80003A60FFF703
:1030100093F8D9F80030DBF82C20DB6A9A4228BFFD
:10302000012433681B68002B4DD03368DB68D3F86C
:103030000CB0DBF804200BF1040195420846CFD216
:10304000019B1A602AE02C4A1368013300241360A4
:103050002A4B1B68002B0CBF2046012003B0BDE8A3
:10306000F08F234B1A68126822BB254A1868116832
:103070001960244910600A6801320A601A681268EF
:1030800032BB1A4B01931A464FF0FF3313601346BD
:1030900095E7DFF87480DFF874900024D9F80030E9
:1030A000DB6A03EB83039B0058F80330022B28BF35
:1030B0000124CDE74FF0500383F31188BFF36F8FE6
:1030C000BFF34F8FFEE7019A4FF0FF331360E5E740
:1030D0001B68064ADB680192DB685B681360134675
:1030E0006DE700BF640A0020E00A0020980A002073
:1030F000C40900206C0A0020600A0020E40A0020B5
:10310000C80900209C0A0020CC090020C00900202A
:103110002DE9F04F83B000F085FE3D4B1A68013A6F
:103120001A601B68002B5AD13A4B1B68002B56D0F3
:10313000DFF8F8A0DAF80030002B66D0364DDFF863
:10314000F080364FDFF8EC900126DAF80C30DC68BE
:1031500004F1040B04F11800FFF716F85846FFF7C6
:1031600013F8E06A2A6806FA00F300EB80001343C4
:10317000594608EB80002B60FEF7DEFF3B68E26AF1
:10318000DB6A9A4233D3C9F80060DAF80030002BCA
:10319000DBD1234B1A681268002A31D01A68214B00
:1031A000D268D26852681A601F4E346844B1012553
:1031B000FFF7F6FE08B1C9F80050013CF8D13460C1
:1031C000D9F800305BB14FF0E0234FF08052C3F8E4
:1031D000042DBFF34F8FBFF36F8F012000E000205D
:1031E000019000F041FE019803B0BDE8F08FDAF8DD
:1031F0000030002BA9D10A4B1A681268002ACDD1E1
:10320000084B4FF0FF321A60CEE7DFF82890CBE78B
:10321000640A0020580A00206C0A0020C00900201F
:10322000C4090020980A0020600A0020A00A00209B
:10323000CC090020E40A0020064B1B6843B94FF07C
:10324000500383F31188BFF36F8FBFF34F8FFEE7F7
:10325000FFF75EBF640A002010B550B94FF0E023BD
:103260004FF08052C3F8042DBFF34F8FBFF36F8F21
:1032700010BD104C216841B14FF0500383F3118809
:10328000BFF36F8FBFF34F8FFEE7236801332360D7
:10329000FFF74CFC236843B94FF0500383F31188C8
:1032A000BFF36F8FBFF34F8FFEE7FFF731FF0028AB
:1032B000D4D010BD640A0020164B1B681BB1164BFE
:1032C00001221A6070471449144A0B601368B3FA5C
:1032D00083F3DBB2C3F11F0303EB8303104A9900AE
:1032E00002EB8303505840B94FF0500383F3118829
:1032F000BFF36F8FBFF34F8FFEE758680831406808
:1033000058600A44904204BF40685860054BC26848
:103310001A607047640A0020E40A00206C0A00204A
:10332000CC090020C009002040B370B5214D0C46E7
:1033300029681831FEF710FF1F4B1E682B6828689C
:10334000002283F852200430FEF71EFF40B92B689C
:103350001A49D86A0B680122824023EA02030B60F3
:10336000631C14D02B68A4195C6017D3144B186825
:103370002968BDE870400431FEF7EEBE4FF05003FF
:1033800083F31188BFF36F8FBFF34F8FFEE7296878
:103390000C48BDE870400431FEF7CEBE0A4B1868F9
:1033A00029680431FEF7D8FE084B1A68944238BFEA
:1033B0001C6070BDC0090020E00A00206C0A0020DB
:1033C000C8090020B80A0020C4090020980A00207B
:1033D000F8B500284ED02C4D0C46296816461831F9
:1033E000FEF7AAFE294B86B11F682B6828680022C9
:1033F00083F852200430FEF7C7FED8B1296824486C
:10340000BDE8F8400431FEF797BE1F682B682868B6
:1034100083F852600430FEF7B7FE68B12B683C19A0
:103420005C601BD31B4B18682968BDE8F840043169
:10343000FEF792BE4FF0FF342B681749DA6A01237A
:1034400003FA02F20B6823EA02030B60631CE5D166
:10345000002ED3D12B683C195C60E3D20F4B186867
:1034600029680431FEF778FE0D4B1A68944200D2A9
:103470001C60F8BD4FF0500383F31188BFF36F8FCA
:10348000BFF34F8FFEE700BFC0090020E00A002015
:10349000B80A0020C80900206C0A0020C4090020D6
:1034A000980A002070B5C368DC6882B0002C2CD06C
:1034B00004F118052846FEF767FE184B1B687BB120
:1034C00017482946FEF738FE164BE26A1B68DB6A8E
:1034D0009A4285BF144B01200020186002B070BDD5
:1034E000211D124D01910846FEF74EFEE36A2E683B
:1034F0000F48019901229A4003EB8303324300EB0A
:1035000083002A60FEF718FEDEE74FF0500383F3D6
:103510001188BFF36F8FBFF34F8FFEE7640A00205F
:10352000A00A0020C0090020E40A00206C0A002044
:10353000CC090020034A044B12681B68C0E9002331
:10354000704700BF9C0A0020E00A002028B3F0B5B5
:103550000D4683B0C1B1044600F064FC224A234BFF
:103560001668196891F8520000BB2B68591C22D0CC
:10357000DFF87CE0D4E90001DEF80070B84220D02A
:10358000B1421ED8012016E04FF0500383F311889A
:10359000BFF36F8FBFF34F8FFEE74FF0500383F3FE
:1035A0001188BFF36F8FBFF34F8FFEE71B680022B8
:1035B00083F852200120019000F056FC019803B0DE
:1035C000F0BDA6EB010C634509D99B1B0B44DEF84B
:1035D000001012682B600020C4E90012EBE7002302
:1035E0002B600120E7E700BFE00A0020C0090020AF
:1035F0009C0A0020014B01221A607047E40A002057
:10360000054B1B6833B1054B1B68002B0CBF022018
:103610000020704701207047B40A0020640A00208F
:1036200020B3F0B5294B1B68834283B0044608D011
:103630004FF0500383F31188BFF36F8FBFF34F8FA9
:10364000FEE79B6C4BB1C16A426C013B91428364C3
:1036500000D06BB1002003B0F0BD4FF0500383F3F6
:103660001188BFF36F8FBFF34F8FFEE700207047C5
:10367000011D08460191FEF787FD0199A0B114488C
:10368000144A636C1668E3620125C3F10707A7615A
:1036900005FA03F403EB830300EB83003443146067
:1036A000FEF74AFD2846D6E7E56A0948094A05EBD0
:1036B00085039B00C358002BE3D1012303FA05F5D2
:1036C000136823EA05031360DBE700BFC00900208D
:1036D000CC0900206C0A00202DE9F043224EDFF8CF
:1036E000909085B04FF000080DE0DB68DC681F6843
:1036F000251D2846FEF748FD236A2046984794F882
:1037000024305B070AD433681A68002AEDD1174ABF
:1037100011683160136005B0BDE8F083A3693B44D4
:103720009F42294605D2306863602461FEF714FD8C
:10373000E9E7D9F800306BB1CDE900870294FFF7D3
:103740005FFF0023D9F800001A466946FEF7DAFD4C
:103750000028D8D14FF0500383F31188BFF36F8F47
:10376000BFF34F8FFEE700BFE80A0020EC0A0020FD
:10377000040C00202DE9F04F9B4E9C4D9C4C8BB0CF
:103780004FF0E0294FF0805833681F68002F00F099
:10379000A880DB681F68FFF7F5FBFFF7FBFB2A68D3
:1037A00090428246C0F0AE80B842286080F0B4807B
:1037B00000222068A7EB0A01FFF7CCF8FFF73CFDD9
:1037C00028B9C9F8048DBFF34F8FBFF36F8F2068FE
:1037D000002202A9FEF714FF0028D5D0029B002B7F
:1037E00076DB049F7B6913B1381DFEF7CDFCFFF734
:1037F000D1FB2B6898428246C0F08B80029BC5F8B3
:1038000000A0092BE3D8DFE803F0050505533D5A76
:103810000505533D97F82430BA693F6143F0010331
:1038200087F82430039B99182CBF012000205145B4
:10383000796000F28C80AAEB03039A4232D83B6A8B
:103840003846984797F824305B07C0D5236883B182
:103850000022BB690692039A089713440793FFF767
:10386000CFFE002320681A4606A9FEF74BFD00286C
:10387000ADD14FF0500383F31188BFF36F8FBFF3C7
:103880004F8FFEE797F8243043F0010387F8243088
:10389000039BBB61002B00F09D80534453457B602C
:1038A0003F615ED8534B391D1868FEF755FC8EE713
:1038B00097F8243023F0010387F8243087E797F83E
:1038C00024309A0752D523F0010387F824307EE78D
:1038D000039BDDE904019847029B002BFFF677AFBD
:1038E0007FE7FFF74FFBFFF755FB2A6882428246CE
:1038F00008D8404BC5F800A01A681268B2FA82F2E4
:10390000520956E7FFF7E8FEC5F800A0FFF794FC60
:103910005DE7FFF7E1FE71E7FFF78EFC3268D268E2
:10392000D2F80CB00BF1040108460191FEF72CFC13
:103930009BF82400019910F0040F1BD120F0010026
:103940008BF82400DBF82030584698473FE7534572
:1039500002D900283FF473AF3068391DFEF7FCFB35
:1039600035E73068391DFEF7F7FB30E7384600F0E1
:1039700093F92CE7DBF81820CBF810B0B818824583
:10398000CBF8040003D23068FEF7E6FBDAE7AAEBD7
:1039900007039A4219D8236873B100230693079747
:1039A000CDF820B0FFF72CFE002320681A4606A9A8
:1039B000FEF7A8FC0028C5D14FF0500383F311880F
:1039C000BFF36F8FBFF34F8FFEE70A4B1868FEF708
:1039D000C3FBB7E74FF0500383F31188BFF36F8F3A
:1039E000BFF34F8FFEE700BFE80A0020B80B0020AE
:1039F000040C0020EC0A0020F0B5234C89B000F044
:103A000011FA256835B300F02FFA2368CBB10024F2
:103A100007AA06A905A8CDE90544FCF753FFDDE98F
:103A200005010223CDE901100093079A17491848B0
:103A30002346FFF7ABF9174B186010B1012009B00E
:103A4000F0BD4FF0500383F31188BFF36F8FBFF3C6
:103A50004F8FFEE7104F114E3846FEF75DFB3046A4
:103A6000FEF75AFB0E4A009517600E4A0E4B166081
:103A700010210E4A0A20FEF7D7FB20600028C2D092
:103A80000B49FEF73FFFBEE7040C00201081000841
:103A900075370008080C0020900B0020A40B0020B4
:103AA000E80A0020EC0A0020BC0B0020F00A0020ED
:103AB0000881000808B5FFF7D5F9002008BD00BF50
:103AC00070B5446986B084460B46ACB186699EB138
:103AD000BCF908E0DCF80010DCF810204068BEF10A
:103AE000840F14BF0EF103050025CDE901460095B2
:103AF000FFF74CF906B070BDBCF90840BCF81020C7
:103B0000842C14BF03340024DCE90010009405ACBD
:103B10000194FFF775F901280CBF0598002006B045
:103B200070BD00BF08B5012838BF0120FFF794FB26
:103B3000002008BD2DE9F0410646FFF723FA504B5F
:103B40001D68002D6AD04F4B1F683E422ED16EB3C8
:103B500006F1080476071CBF24F0070408342CB3D0
:103B6000DFF830C1DCF80060A6421FD34648036886
:103B700003E01A6822B1184613465968A142F8D3E7
:103B8000AB4213D098460A1B58F808EBC0F800E087
:103B9000102A29D9191948070FD04FF0500383F381
:103BA0001188BFF36F8FBFF34F8FFEE7FFF744FB22
:103BB0004FF000084046BDE8F0814A60324A5C6040
:103BC000144612689142FBD8606804EB000E714500
:103BD00046D0D1F804E001EB0E00824247D00A60E3
:103BE0008C4218BF21605968284A1068761A8642AC
:103BF00038BF166039430022C3E90021CCF80060C9
:103C0000FFF71AFB18F0070FD4D04FF0500383F3DF
:103C10001188BFF36F8FBFF34F8FFEE71C49194C1C
:103C20004F0714BFCA1D0A4601F5C041A1F108059E
:103C300025F0070518BF22F0070214491D60104641
:103C4000AB1A144A0B60104913604FF00047002272
:103C500008604A602760C5E90022C0E9005374E7A4
:103C6000496800EB010EC4F804E02146B3E7AA421C
:103C7000B5D0506812680A6070444860B0E700BF71
:103C80000C0C0020106C00201C6C0020186C002014
:103C9000100C0020146C0020D0B1294A50F8043CCC
:103CA000126813420BD050F8081C91B14FF050032A
:103CB00083F31188BFF36F8FBFF34F8FFEE74FF091
:103CC000500383F31188BFF36F8FBFF34F8FFEE76D
:103CD000704710B523EA020382B040F8043C194C47
:103CE0000190FFF74FF90198226850F8041C164B19
:103CF0000A44083822601A461B689842FBD8546868
:103D000002EB040E704516D000EB010C634508D0A1
:103D10000360824218BF106002B0BDE81040FFF798
:103D20008BBA0A4C2468A342F2D0D3E90034214470
:103D3000C0E90031EDE7214451601046E4E700BFDF
:103D4000106C0020146C00201C6C00200C0C002057
:103D500008480068006880F308884FF0000080F38E
:103D6000148862B661B6BFF34F8FBFF36F8F00DF69
:103D700000BF000008ED00E0DFF80C00016841F42E
:103D8000700101607047000088ED00E00E4B1B6879
:103D900082B000220133019208D04FF0500383F328
:103DA0001188BFF36F8FBFF34F8FFEE74FF05003C3
:103DB00083F31188BFF36F8FBFF34F8F019B002BED
:103DC000FCD002B0704700BF0C00002010B44FF0D0
:103DD0008073074C40F8043C21F001016FF00203AE
:103DE00040E9034140E909325DF8044B443870472B
:103DF0008D3D0008000000000000000000000000F1
:103E0000074B19680868B0E8F04F80F30988BFF3E2
:103E10006F8F4FF0000080F311887047AFF3008080
:103E2000C00900204FF0500383F31188BFF36F8F58
:103E3000BFF34F8F0B4A13680133012B136000D07F
:103E400070474FF0E023D3F8043DDBB2002BF7D0EE
:103E50004FF0500383F31188BFF36F8FBFF34F8F81
:103E6000FEE700BF0C000020084A136843B94FF07A
:103E7000500383F31188BFF36F8FBFF34F8FFEE7BB
:103E8000013B13600BB983F3118870470C000020CD
:103E9000EFF30980BFF36F8F154B1A681EF0100FF8
:103EA00008BF20ED108A20E9F04F10602DE90900CD
:103EB0004FF0500080F31188BFF34F8FBFF36F8F27
:103EC000FFF7FAF94FF0000080F3118809BC196878
:103ED0000868B0E8F04F1EF0100F08BFB0EC108A71
:103EE00080F30988BFF36F8F704700BFAFF3008086
:103EF000C009002008B54FF0500383F31188BFF3C9
:103F00006F8FBFF34F8FFFF74BF828B14FF0E023CF
:103F10004FF08052C3F8042D002383F3118808BDAD
:103F20004FF0E02200230649136193610B680548B6
:103F3000A0FB03039B090721013B536111617047FB
:103F400008000020D34D62104FF0E023484AD3F818
:103F5000001D914241D0D3F8002D464B9A4233D0F8
:103F600070B5454B454C1A78454884B0FF21D2B214
:103F7000029219701B78DBB28DF807309DF807307C
:103F80009DF8072003F050030721120623700160FB
:103F900048BF06220FD59DF807305B00DBB28DF8D5
:103FA00007309DF807301B06114602F1FF32F2D4AC
:103FB00003291BD001604FF0500383F31188BFF336
:103FC0006F8FBFF34F8FFEE74FF0500383F31188DD
:103FD000BFF36F8FBFF34F8FFEE74FF0500383F3B4
:103FE0001188BFF36F8FBFF34F8FFEE7029B224A0A
:103FF000244D4FF0E0244FF44071DBB201601370A8
:10400000D4F8203D43F47003C4F8203DD4F8203D9B
:1040100043F07043C4F8203D0026FFF781FF2E6077
:10402000FFF7AAFED4F8343F43F04043C4F8343FCE
:10403000FFF78EFEFFF740F92B680396013308D097
:104040004FF0500383F31188BFF36F8FBFF34F8F8F
:10405000FEE74FF0500383F31188BFF36F8FBFF378
:104060004F8F039B002BFCD0002004B070BD00BF1D
:1040700071C20F4170C20F4100E400E0246C0020C7
:10408000286C00200C00002008B5214B9FED211A60
:10409000DFED210A2DED028B9FED208AF7EE001A4D
:1040A000C3ED011AC3ED021AC3ED031AB0EE482A9C
:1040B0000122B2EE040A83ED048A83ED058A83EDC2
:1040C000068A1A7001F0BCFC00221146F0EE484A44
:1040D000B0EE484AF0EE483AB0EE483AF0EE482AE0
:1040E000B0EE481ADFED0E1ADFED0E0A9FED0E0A54
:1040F0000E48B3EE042A01F023FF0D480021FDF71E
:1041000019FEBDEC028B0B4B0B4A1A6408BD00BFB5
:104110002C6C00208096184B6F12833A0000000030
:1041200000007A44000096430000FA44D06C00205E
:10413000F8080020486C002096430B3C92ED036A7F
:1041400092ED027AD2ED004A92ED015AD0ED013A99
:1041500090ED004AF6EE006AF0EE665A64EEC67A1A
:10416000E7EE475AE7EE057AE6EE465A67EEA37A9F
:1041700027EE247AE5EE847AA6EE057A90ED026ABF
:10418000E7EE067A77EEA77AC1ED007AD2ED015A12
:1041900092ED036A92ED007AD2ED024AD0ED013A37
:1041A00090ED004AF0EE667AE5EEE57A27EE065AE3
:1041B000E6EE467AA5EEA45A27EE657A67EEA37A74
:1041C000A4EE867AE5EE047A90ED026AE7EE067ACE
:1041D00077EEA77AC1ED017AD2ED015A92ED007A1D
:1041E00092ED026A92ED035AD0ED014A65EE877AAC
:1041F00026EE477AE5EE067AA5EE857AE5EEE56AE3
:1042000090ED005AD0ED025A67EEA47AE6EE466AC7
:10421000E7EE057AE6EEA57A77EEA77AC1ED027AA7
:10422000704700BFD2ED025A92ED036A92ED007A18
:10423000D2ED014AD0ED013A90ED004AF6EE006A67
:10424000B0EE665A66EE077AA5EEE55AE5EEA47A78
:10425000A6EE465A67EEA37A27EE657AE5EE047A73
:10426000A6EE247A90ED026AE7EE067A77EEA77A58
:10427000C1ED007A92ED017A92ED036AD2ED004A27
:1042800092ED025AD0ED013A90ED004AF0EE667AD6
:10429000E7EE477A66EE645AE6EE467AE7EE055AAE
:1042A00067EEA37A27EE247AE5EE847AA5EE067A05
:1042B00090ED026AE7EE067A77EEA77AC1ED017A11
:1042C000D2ED015A92ED007A92ED026A92ED035A14
:1042D000D0ED014A67EE657A27EE067AE5EE067ABA
:1042E000A5EE857AE5EEE56A90ED005AD0ED025A2A
:1042F00067EEA47AE6EE466AE7EE057AE6EEA57A80
:1043000077EEA77AC1ED027A704700BF2DE9F0473A
:104310002DED068B86B00023D74AD8480093019331
:10432000029200F091FAD64BD64ED3ED007ADFF828
:10433000AC83D54DD54F88ED000A77EE807A3046B4
:10434000C3ED007A02F060FC95ED040AD7ED007A27
:10435000CF4C9FEDD07AF36896ED002AD6ED010A96
:10436000D6ED022A236170EE677A33696361F0EE5D
:10437000E77AF4EEC77A736984ED072AF1EE10FA52
:10438000C4ED080AC4ED092AA36100F3DD81DFF85A
:10439000509395ED055AD9ED007A75EE677AF0EEF7
:1043A000E77AF4EEC77AF1EE10FA40F39D81DFF878
:1043B00034A39FEDB9AA80EE0A0A03F02DFEB0EEF9
:1043C000409A95ED050A80EE0A0A03F025FEF0EE0C
:1043D000408A95ED060A80EE0A0A03F01DFEF0EE13
:1043E00040AA95ED040A80EE0A0A03F0C7FDB0EE7C
:1043F000408A95ED050A80EE0A0A03F0BFFDF0EE53
:10440000409A95ED060A80EE0A0A03F0B7FDA34B29
:1044100028EE297A69EE2A5A2AEE886A25EEE94AB8
:10442000E0EE075A26EE693AC3ED005AA8EE404A7C
:104430009B4BA9EE003A69EE297A28EE888A90EE25
:10444000276A83ED008A974B95ED055A83ED003A74
:10445000954BD5ED067A83ED006A29EE287A934BC9
:1044600094ED072A83ED007A914BD4ED080A83ED91
:10447000004A68EEC06A8F4B95ED040AC3ED006AEE
:104480008D4BD4ED092AC3ED009A68EEAA8A8B4BB6
:10449000C3ED008A00232B70D5ED024AD5ED013A19
:1044A00089ED005ACAED007A94ED045AD4ED057AEC
:1044B00087ED000A63EE853A67EEA47A95ED035A1C
:1044C000D4ED064A7E4D7F4F64EE854A28EE275A8A
:1044D00028EE208AA3EEA55AA5EE828A67EE205A1E
:1044E00027EE277A69EEA00A69EEA77AE6EE820A3D
:1044F000E3EEA67AF0EE656AA3EE867AE6EE026A4D
:10450000B0EE480AB0EE456AA4EE836AA4EE847A5F
:10451000E4EEA87AE4EE226AE8EEA20AA3EE220A0A
:1045200084ED046A84ED057AC4ED086AC4ED067A68
:10453000C4ED090A84ED070A02F00EFEDFED628A7F
:104540009FED628AD4ED090A20EE680AC0EE087A6F
:1045500094ED080AC4ED1A7A02F0FEFD20EE280A56
:10456000D4ED092A98ED003A94ED082AD4ED071A03
:1045700094ED061AD4ED050AC0EE087A94ED040A0B
:10458000C4ED1B7A01F0C8FA05F5A8730FCB84E8D7
:104590000F003F4A4E4802F14401FFF7CFFD02F100
:1045A00050014C48FFF7CAFD02F15C014A48FFF791
:1045B000C5FD03A96846FFF735FED4ED075A94ED13
:1045C000086AD4ED096ADDED057ADDED032A9DED7B
:1045D000043A98ED005A94ED107AD4ED0C3A94ED2B
:1045E0000A4AD4ED0B4A76EEE76A75EEE25A36EEE9
:1045F000436A75EE077A27EE044A26EE056A67EEEF
:10460000244A66EE856A27EE237A65EE855AC4EE63
:10461000273A02F1340102F1280085EEA75A84EE10
:10462000A74AC6EE275AC7EE274A86EEA76A35EE96
:10463000847A75EE236A76EE247AC4ED0A6A84EDF4
:104640000B7AC4ED0C7AFFF779FDD5F8A831A36792
:10465000D5F8A4316367D5F8A03123673B68D5F856
:10466000AC21E26713F0010473D001333B6006B064
:10467000BDEC068BBDE8F087C3F51C41C86C00207B
:10468000C06D0020607000202C6C0020BC6D0020EC
:10469000486C00206F12833AE12E6542886D00203D
:1046A0008C6D0020906D0020946D0020986D00208E
:1046B0009C6D0020A06D0020A46D0020A86D00203E
:1046C000806E0020AC6D002000003443DB0F4940B9
:1046D000188100082481000830810008B06D002096
:1046E000B46D0020B86D0020DFF8E4A0D5ED067AA7
:1046F000DAED006A77EEE66AF0EEE66AF4EEC76A93
:10470000F1EE10FA3FF755AE2B78002B7FF451AE47
:10471000214BD3ED005A214B93ED008A204B93EDB2
:10472000003A204B93ED006A1F4B93ED007A1F4B2C
:1047300093ED004A1E4BD3ED006A1E4BD3ED009A59
:104740001D4BD3ED008AA7E6DFF88890DFF880A044
:104750002FE61A4B1A4DD3ED000A96ED070A2846AC
:1047600001F01AFC95ED0D0A00F03EFD07EE900AEF
:104770009FED141ADFED140AB8EEE70A00F024FDED
:10478000BCEEC00A114810EE103A21469AB200F071
:1047900017F93B6869E700BF886D00208C6D002029
:1047A000906D0020946D0020986D00209C6D00207D
:1047B000A06D0020A46D0020A86D00201000002036
:1047C000D06C00200000804F00000000F80800209E
:1047D000B86D0020B46D002010B4124C124BD4F808
:1047E000FC20002142F08072C4F8FC2059601A6855
:1047F0000E4C42F001021A6004FB00F00C4B0D4C11
:104800000D4A2060A3FB00C30C4C9B09A2FB0020B7
:1048100023600B4A0B4B5DF8044B1160800C186051
:10482000704700BF00ED00E0001000E040420F00C4
:10483000D34D6210C46D002083DE1B43C86D002081
:10484000DC6D0020CC6D002030B4124A0168536842
:10485000114C82B094ED007A0093009B009D05609E
:104860005B1A51680D4A019107EE903A019913685D
:10487000F8EE677AB8EE477A994287EE870A03D254
:1048800007490B6801330B60019B136002B030BC19
:10489000704700BF001000E0C46D0020D86D0020FC
:1048A000DC6D00202DE9F0411F4A204B5168DFF8F4
:1048B000948082B0002600915268019201991A6892
:1048C00091421B4A14683CBF01341460019A00985D
:1048D0001A604FF0FF353146E4FB0501154A164CCE
:1048E0001268C4E900013346FBF772FC1F46134B04
:1048F000C8F800001D68144633462A46204639464B
:10490000FBF766FC83B203FB05F50D4AA8F80430FB
:10491000601B1268334667F10001FBF759FCA8F8E9
:10492000060002B0BDE8F081001000E0D86D002064
:10493000DC6D0020C46D0020D06D0020C86D00200B
:10494000CC6D0020E06D002008B5FFF7ABFF0C4BED
:10495000DFED0C6A9A88D3ED007ADB8807EE102A27
:10496000B8EE670AB8EEC77A07EE903AA7EE260AC5
:10497000F8EEE77A9FED047AA7EE870A08BD00BF3C
:10498000E06D00206F12833ABD3786350A4B0B4A23
:10499000D3ED007A5168F8EE677A27EE800A536803
:1049A0005B1A07EE903AF8EE677AF4EEC07AF1EE11
:1049B00010FAF4D4704700BFC46D0020001000E06E
:1049C0000368D86A824284BFDA6A92B20C2909D895
:1049D000DFE801F00D0808080B08080809080808B6
:1049E00007001A647047DA6370479A6370475A6326
:1049F000704700BF2DE9F04790464273BB4F837369
:104A000000221E460274BA4B0173042204460D466E
:104A10003A800121082230461A8002F033FA4FEA28
:104A2000860A60610121504602F02CFA0121A06142
:104A3000504602F027FA4FEA8509E0610121484615
:104A400002F020FA01212062304602F01BFA012117
:104A50006062484602F016FA01212060504602F0DA
:104A600011FA012160604FEA880002F00BFA01217F
:104A7000A060484602F006FA01220346C4F8E800A6
:104A8000294604F1300003F01BFA3888012105FBA8
:104A900000F002F0F7F9217BC4F8EC000346012294
:104AA00004F1380003F00CFAB8F1000F40F0FB807D
:104AB0003888012106FB00F002F0E4F901220346E8
:104AC000A17BC4F8F40004F1480003F0F9F9388838
:104AD00005FB00F0012105FB00F002F0D3F9227B79
:104AE000C4F8F8000346114604F1500003F0E8F959
:104AF000388805FB00F0012105FB00F002F0C2F947
:104B0000227BC4F8FC000346114604F1580003F070
:104B1000D7F9B7F8009005FB09F905FB09F9012160
:104B2000484602F0AFF901218246C4F80001484628
:104B300002F0A8F9227BC4F804011146534604F19F
:104B4000600003F0BDF9227BD4F80431114604F172
:104B5000680003F0B5F9B8F1000F40F0B480B7F881
:104B6000009009FB06F0012105FB00F002F08AF934
:104B7000804609FB05F0C4F80C8106FB00F001211A
:104B800002F080F94346227BA17BC4F8100104F1B6
:104B9000780003F095F9D4F81031A27B217B04F161
:104BA000800003F08DF9388805FB00F005FB00F06C
:104BB000012102F067F9227BC4F814010346114673
:104BC00004F1880003F07CF9388806FB00F006FB4E
:104BD00000F0012102F056F9A27BC4F81801034647
:104BE000114604F1900003F06BF9388805FB00F0E2
:104BF000012106FB00F002F045F9A27B217BC4F8FD
:104C00001C01034604F1980003F05AF9257B3E8805
:104C100005FB06F606FB05F8404602F05FF907467D
:104C2000C4F82001404602F059F9C4F82401404676
:104C300002F054F9C4F82801304602F04FF9C4F8E4
:104C40002C01304602F04AF9AAB211463B46C4F89C
:104C5000300104F1A00003F033F9227BD4F82431B1
:104C6000114604F1A80003F02BF9227BD4F8283177
:104C7000114604F1B00003F023F9D4F82C31217B64
:104C8000012204F1B80003F01BF9D4F83031217B84
:104C9000012204F1C00003F013F90023A36284F899
:104CA0002C30BDE8F0873888012108FB00F002F0C5
:104CB000E9F8617BC4F8F0000346012204F14000EA
:104CC00003F0FEF8F4E6388805FB00F008FB00F07E
:104CD000012102F0D7F8627BC4F808010346217B6A
:104CE00004F1700003F0ECF839E700BFEA6D002032
:104CF000E86D0020F8B5594DC67B827B2B880446B1
:104D0000002E5DD000274168077403FB02F2D0F843
:104D1000F40002F0EBF82B88A27B606803FB02F240
:104D2000394602F0F1F8A27B2B88D4F8180102FB77
:104D300003F303FB02F2394602F0E6F8227B2B88EC
:104D4000D4F80C0102FB03F3A27B394603FB02F209
:104D500002F0DAF8A67B002E7DD0237CD4F8F40094
:104D600039463A466FF0404C00EB820EDEED007A99
:104D7000F5EE407AF1EE10FA00EB83074FEA820E6F
:104D800038D0606AC7ED007AC2546069237C825CC7
:104D9000267BA769D4F80C0106FB0322BE446244BB
:104DA00000EB8202DEF800601660A67B0131013361
:104DB000CAB2DBB2B242237420D2D4F8F400D3E7F3
:104DC0004168D0F8F40003FB02F202F08FF82B8860
:104DD000A27B6068314603FB02F202F095F82B8853
:104DE000627BA168D4F8F00003FB02F2BDE8F84052
:104DF00002F07CB80131CAB2B242B5D3A3B1616A44
:104E0000D4F81CC0D4F818015F1C5E1E51FA86F657
:104E1000BF00013911F8012F0CEB8202B142126878
:104E200002603844F6D19BB2002163F30F01227B6C
:104E3000A4F8783063F31F41A4F87A20A4F8802006
:104E4000A4F88230C4F89010A4F89820A4F89A30FE
:104E5000A4F84830C3E7237CD0E700BFEA6D002008
:104E60002DE9F8430446FFF745FFD4F8CC300BB1E9
:104E70002046984794F8283063BB637B002B00F0F2
:104E80008C80237BA4F8B830012704F1B8052A46AA
:104E900004F13001A4F8BA7004F1600002F01AFEC7
:104EA00004F1C006237B84F8C800A4F8C030324661
:104EB00004F14001A4F8C27004F1700002F00AFE8F
:104EC00004F1380284F8C8003146284602F0FCFF9D
:104ED00084F8C800D4F8D0300BB12046984794F835
:104EE0002930002B64D0D4F8D4300BB12046984739
:104EF000237C1BB9E37B002B40F04B8194F82A30D4
:104F0000002B00F0EC80D4F8D8300BB12046984745
:104F100094F82B30002B00F0A780D4F8DC300BB1D4
:104F20002046984794F82C30002B6FD0A54DD4F82C
:104F3000E0300BB120469847227BF2B1206AD4F8CA
:104F4000F81002F1FF3C02F1010E5FFA8CFC031D28
:104F50004FEA8E0E03EB8C0C00E00433D0ED007AA8
:104F600091ED007AB4EEE77AF1EE10FA48BFC1EDA8
:104F7000007A9C4518467144EFD12B88D4F8E8108C
:104F8000206803FB02F201F0B1FFD4F8E4300BB16A
:104F9000204698472068BDE8F88304F1380204F100
:104FA000300104F1600002F095FD84F8C80091E73B
:104FB00004F1600604F168073946304602F0BCFC93
:104FC00004F1580584F8C8002A46304604F150011F
:104FD00002F080FDB4F85830A4F8A83004F1A80617
:104FE000B4F86A3084F8C8003946A4F8AA303246CA
:104FF000284602F06FFD2A4684F8C80004F18801B3
:10500000304602F061FF84F8C8006CE7B4F89830CD
:10501000B4F87A20B4F85A00A4F8A83004F1A8072C
:10502000A4F8B030A4F8AA2004F178013A46A4F814
:10503000B20004F1980002F04DFD04F1580504F1AE
:10504000B006294684F8C8003246384602F042FDD0
:1050500004F1500284F8C8003146284602F0E0FC12
:10506000584D84F8C80062E704F1B805B4F8783008
:10507000A4F8B8304FF0010804F138062A4631464A
:10508000A4F8BA8004F1780002F024FD04F1C0070E
:10509000B4F8483084F8C800A4F8C0303A4629462D
:1050A000A4F8C28004F1480002F0BAFCB4F89830C9
:1050B00084F8C8002A463946A4F8B830A4F8BA8063
:1050C00004F1980002F006FD04F1300284F8C800F3
:1050D0002946304602F0F8FE84F8C8001DE704F1C6
:1050E000800604F178073146384602F025FCB4F812
:1050F0007830A4F8A83004F1A805B4F85A3084F840
:10510000C80004F158083846A4F8AA302A46414697
:1051100002F0E0FCB4F8A830A4F8B03004F1B00715
:10512000B4F8823084F8C800A4F8B2303A46314668
:10513000284602F0CFFC04F1A009D4F89030C4F85E
:10514000A0304A4684F8C80004F19001384602F0C5
:10515000BBFE394684F8C800484602F061FDB4F849
:105160005830A4F8A830B4F8823084F8C80031462A
:10517000A4F8AA302A46404602F0ACFC04F198029A
:1051800084F8C8003946284602F0A4FC84F8C80018
:10519000B9E60C4D227B2B88D4F8EC10D4F8E8004B
:1051A00003FB02F201F0A2FE227B2B88D4F8FC1054
:1051B000D4F8F80002FB03F303FB02F201F096FEC1
:1051C000B5E600BFEA6D0020B4EEE00AF1EE10FA99
:1051D00007D4B4EEC10AF1EE10FAC8BFB0EE410A2E
:1051E0007047B0EE600A7047BDEEC07AF6EE007A06
:1051F00017EE100AB8EEC77A054B30EE470AB4EE48
:10520000E70AF1EE10FAC8BF01301860704700BF1E
:10521000EC6D002070B500258E00044601804560CD
:105220003046FEF787FCA0603046FEF783FC002383
:10523000E0602361636132462946A06801F064FEA4
:10524000E0683246294601F05FFEE561256265624D
:10525000A56270BD70B5B0F800E08168C46891EDDA
:10526000017A0EF1FF36002E15DD002301339A007E
:105270008D18D5ED007AA2F1040C77EEC77A01EB18
:105280000C052244C5ED007AA4449BB21268CCF808
:105290000020B342EADB0EF18043023B9B00CA18B8
:1052A000D2ED007A426837EE800A964503F1040396
:1052B00088BF013201EB0305234485ED000AC3EDED
:1052C000000A4FF0000388BF4260C361036243627B
:1052D00083628388DFED3A7AAEEB030292B27245C5
:1052E0005CD2013B12FA83F304EB820401EB8202ED
:1052F000043101EB8301B0EE676AB0EE677AF0EE3D
:10530000676AA4461346D3ED005AE5EEA56AC0EDE0
:10531000076AF3EC015A37EE257A8B4280ED087A62
:10532000DCED005A13ED015AA5EE256A80ED096AFD
:10533000FCEC015A77EEA57AC0ED0A7AE3D105EECE
:1053400090EA67EEC77AF8EEE55A27EE477AE5EE7F
:10535000867AA5EEA67A9FED1A6A90ED055A80ED41
:10536000066A87EE870AF0EE466A80ED040AB2EC20
:10537000016AB4EC017AF0EE457AE6EE007A8A42F0
:1053800077EEC77AF0EEE77A76EEA76AC0ED066AA6
:10539000EDD1C6EEA57AC0ED067A70BD07EE10EA33
:1053A000F8EEC75AF0EE676A65EEA77A87EEA70AAD
:1053B000C6EEA57A80ED040AC0ED067A70BD00BF86
:1053C0000000000010B4D0F8EC404E4BD4ED016A60
:1053D00094ED005AD4ED025AD4ED034A4A4AD0F86B
:1053E0000011D0F8F8009FED494A26EEA67AB6EEF5
:1053F000006AA5EE057AF7EE087AA5EEA57AA4EE86
:10540000A47A17EE10CAA3EB6C0327EE063A07EE58
:10541000103A23EE073AE7EE437A67EE277A25EE55
:10542000A77A65EE272A26EEA73A64EEA77AC4ED9E
:10543000002A84ED013A84ED027AC4ED037AD2EDBC
:105440006F7A66EEA77A67EE867AC1ED047AD2EDBE
:105450006F7A65EEA77A67EE867AC1ED057AD2EDAE
:105460006F7A65EE677A67EE867AC1ED0A7AD2EDD9
:105470006F7A64EEA77A67EE867AC1ED0B7AD2ED89
:105480006F7A64EEE74A64EE864AC1ED104AD2EDC7
:105490006F7A25EE675A25EE065A81ED115AD2ED44
:1054A0006F7A65EEA75A65EE865AC1ED165AD2EDAF
:1054B0006F7A66EEE76A66EE866AC1ED176A92ED6C
:1054C000747AD0ED1C6A90ED236AC6EE877AC0ED3F
:1054D0001C7AD2ED746A86EE267AF4EE447AF1EE06
:1054E00010FAB4EE447AC8BFF0EE447AF1EE10FA46
:1054F000C8BFB0EE447AC0ED1C7A80ED237A5DF827
:10550000044B7047865A375F806E002000401C466F
:1055100038B50446D0F8F81009484825902201F023
:10552000E5FCD4F81C1107482A4601F0DFFCD4F84A
:105530000C1105482A46BDE8384001F0D7BC00BF31
:1055400014000020386E0020F06D00202DE9F84F87
:1055500000F1780500F1800A04462DED028B5146DA
:10556000284602F0E9F9B4F87830A4F8A83004F13C
:105570005802B4F85A3084F8C80004F1A80611465D
:10558000A4F8AA30284608EE102A324602F0A2FA01
:10559000B4F8A830A4F8B03004F1B007B4F8823001
:1055A00084F8C800A4F8B2303A465146304602F0BA
:1055B00091FA04F1A005D4F89030C4F8A0302A463E
:1055C00084F8C80004F19001384602F07DFC3946A9
:1055D00084F8C800284602F023FBD4F8EC3084F8A5
:1055E000C80093ED016AD3ED005A93ED025AD3ED52
:1055F000036AB4F87820D4F82C31A4F8B82066EE09
:10560000467A25EE650AE5EEA57A0122A4F8BA20CD
:1056100025EE267AE5EE457ADFF89083A6EE260A97
:105620000425A5EE867AE6EEA67A30EE000A37EE7D
:10563000077A83ED000A83ED017AC3ED027AB0EEBA
:10564000C00A01F031FD0C2DA8EC010A0DD0D4F8F0
:105650002C312B4493ED000AB0EEC00A01F024FD7A
:1056600004350C2DA8EC010AF1D1B4F84820A4F8B7
:10567000C0204FF0010904F1B80804F1C00B5A46EC
:105680004146A4F8C29004F1480002F0C9F9B4F808
:10569000C02084F8C800A4F8A82059463246A4F8CF
:1056A000AA90384602F016FAB4F8C02084F8C80070
:1056B000A4F8BA204146A4F8B890584602F03CF944
:1056C000B34D84F8C80005F5E0723146404602F05B
:1056D00001FA84F8C800D5ED737A95ED727AF6EE8A
:1056E000006A67EEA66AB4EEE67AF1EE10FA22D509
:1056F000B4EEE77AF1EE10FA85F8389140F3D780EE
:1057000095F83921002A00F02481D5F84021D5F8F8
:105710004411013241F10001332A71F10003C5F84F
:105720004021C5F84411C0F01881002285F83821C5
:1057300084F82C2014E0B4EEE77AF1EE10FA40F38E
:105740009E8095F83821002ADAD1F7EE006A00220F
:1057500000200021C5E95001C5ED676A84F82C20BE
:10576000B4F85820A4F8A820B4F88220A4F8AA20FD
:105770005146324618EE100A02F0ACF904F19809CD
:1057800084F8C800394630464A4602F0A3F9B4F816
:105790009820B4F89A70D4F81C6184F8C80002FB11
:1057A00007F777B1002106EB8100D0ED007A95ED87
:1057B000677A013167EE877AC9B2B942C0ED007AE3
:1057C000F1DB95ED617ADFED737AD6ED0C4A96ED5B
:1057D0000D5AD6ED0E5A96ED0F6AD6ED106A87EE89
:1057E000274A01235946484696ED117A64EE844AC9
:1057F000C6ED0C4A95ED614AC4EE274A25EE245ABF
:1058000086ED0D5AD5ED614A84EEA75A65EE855AAC
:10581000C6ED0E5A95ED625AC5EE275A26EE256A58
:1058200086ED0F6AD5ED625A85EEA76A66EE866A46
:10583000C6ED106A95ED626AC6EE276A67EE267AB3
:10584000C6ED117AA4F8B820A4F8BA30424602F0A6
:1058500041F984F8C80095F83831DBBBD4F8BC3086
:105860000021D96004F13002414604F1380002F011
:105870002BFB84F8C800BDEC028BBDE8F88FDFED90
:10588000466A67EEA66AB4EEE67AF1EE10FA7FF7A2
:105890005CAF95F83821002A3FF457AFDFED3F6A3F
:1058A00037EEC77A67EEA67AC7EE276A4FE7DFEDD5
:1058B0003A6A67EEA66AB4EEE67AF1EE10FA7FF77E
:1058C00044AFDFED366A37EEC77A67EEA67AC7EEE9
:1058D000276A3CE7D4F8BC30D5ED6F7A9FED307A7B
:1058E000D3ED046A67EE877A9FED2E7AF4EEE76ACD
:1058F000F1EE10FAC4BFC3ED047AF0EE676AD5ED9D
:105900006F7A27EE877AB4EEE67AF1EE10FAC4BF2A
:1059100083ED047AD5ED6F7A9FED217AD3ED056A98
:1059200027EE877AF4EEC76AF1EE10FA05DD83ED13
:10593000057AD5ED6F7AF0EE476A9FED1A7A67EE39
:10594000877AF4EEE67AF1EE10FAC8BFC3ED057A75
:1059500086E700220023C5E95023134D227B2B88C4
:10596000D4F8EC10D4F8E80003FB02F201F0BEFA20
:10597000227B2B88D4F8FC10D4F8F80002FB03F348
:1059800003FB02F201F0B2FA012384F82C3072E733
:10599000806E0020DA0FC93FCDCCCC3D6666663FF5
:1059A0000AD7233C0AD723BCEA6D002004700020EC
:1059B00010B52DED048B214AD0F8EC301188D3EDD1
:1059C000008A93ED019AD3ED029A93ED038A04467F
:1059D000807B227B00FB01F101FB02F2D4F80C0179
:1059E000002101F091FA78EEA88AD4F80C3139EE52
:1059F000099A38EE088A79EEA99AF1EE686AF1EE12
:105A0000697AB1EE497A83ED018A83ED039A83EDD9
:105A1000069AC3ED078A83ED088AC3ED099AC3EDA0
:105A20000C8A83ED0F8ABDEC048BC3ED007AC3EDC5
:105A3000026A83ED0D7AC3ED0E7A10BDEA6D002087
:105A400038B52DED028BB7EE008A2B4C2B4BC4F8EA
:105A5000CC31F4EE481A9FED267BF1EE10FAC8BF68
:105A6000F0EE481A01250022201D0323062184EDB3
:105A7000507B84ED527B84ED6C0A84ED642AC4ED86
:105A80006D0A84ED6E1AC4ED741A84F838212570FD
:105A9000FEF7B0FF04F5E4732A46294604F5E070EA
:105AA00002F00EFAD4F8EC30154883ED008A00229B
:105AB0005A609A60DA60134B1349C4E934031348FF
:105AC000134B9022C4E9360340F20113D4F80401C9
:105AD000E38501F00BFABDEC028BD4F8FC000D4914
